{
  "_format": "hh-sol-artifact-1",
  "contractName": "Exchange",
  "sourceName": "contracts/Exchange.sol",
  "abi": [
    {
      "inputs": [
        {
          "internalType": "address",
          "name": "_cryptoDevToken",
          "type": "address"
        }
      ],
      "stateMutability": "nonpayable",
      "type": "constructor"
    },
    {
      "inputs": [],
      "name": "InsufficientAmount",
      "type": "error"
    },
    {
      "inputs": [],
      "name": "LessThanMinimiumETHExpected",
      "type": "error"
    },
    {
      "inputs": [],
      "name": "LessThanMinimiumTokenExpected",
      "type": "error"
    },
    {
      "inputs": [],
      "name": "MustBeGraterthanZero",
      "type": "error"
    },
    {
      "inputs": [],
      "name": "TransferFailed",
      "type": "error"
    },
    {
      "inputs": [],
      "name": "ZeroAddress",
      "type": "error"
    },
    {
      "anonymous": false,
      "inputs": [
        {
          "indexed": true,
          "internalType": "address",
          "name": "from",
          "type": "address"
        },
        {
          "indexed": true,
          "internalType": "address",
          "name": "tokenAddress",
          "type": "address"
        },
        {
          "indexed": true,
          "internalType": "uint256",
          "name": "tokenAmount",
          "type": "uint256"
        },
        {
          "indexed": false,
          "internalType": "uint256",
          "name": "ETHAmount",
          "type": "uint256"
        },
        {
          "indexed": false,
          "internalType": "uint256",
          "name": "liquidity",
          "type": "uint256"
        }
      ],
      "name": "AddLiquidity",
      "type": "event"
    },
    {
      "anonymous": false,
      "inputs": [
        {
          "indexed": true,
          "internalType": "address",
          "name": "owner",
          "type": "address"
        },
        {
          "indexed": true,
          "internalType": "address",
          "name": "spender",
          "type": "address"
        },
        {
          "indexed": false,
          "internalType": "uint256",
          "name": "value",
          "type": "uint256"
        }
      ],
      "name": "Approval",
      "type": "event"
    },
    {
      "anonymous": false,
      "inputs": [
        {
          "indexed": true,
          "internalType": "address",
          "name": "from",
          "type": "address"
        },
        {
          "indexed": true,
          "internalType": "uint256",
          "name": "LpTokenAmount",
          "type": "uint256"
        },
        {
          "indexed": true,
          "internalType": "uint256",
          "name": "ETHAmount",
          "type": "uint256"
        },
        {
          "indexed": false,
          "internalType": "uint256",
          "name": "tokenAmount",
          "type": "uint256"
        }
      ],
      "name": "RemoveLiquidity",
      "type": "event"
    },
    {
      "anonymous": false,
      "inputs": [
        {
          "indexed": true,
          "internalType": "address",
          "name": "from",
          "type": "address"
        },
        {
          "indexed": true,
          "internalType": "uint256",
          "name": "ETHamount",
          "type": "uint256"
        },
        {
          "indexed": true,
          "internalType": "uint256",
          "name": "tokenAmount",
          "type": "uint256"
        }
      ],
      "name": "SwapETHToToken",
      "type": "event"
    },
    {
      "anonymous": false,
      "inputs": [
        {
          "indexed": true,
          "internalType": "address",
          "name": "from",
          "type": "address"
        },
        {
          "indexed": true,
          "internalType": "uint256",
          "name": "tokenAmount",
          "type": "uint256"
        },
        {
          "indexed": true,
          "internalType": "uint256",
          "name": "ETHAmount",
          "type": "uint256"
        }
      ],
      "name": "SwaptokenToETH",
      "type": "event"
    },
    {
      "anonymous": false,
      "inputs": [
        {
          "indexed": true,
          "internalType": "address",
          "name": "from",
          "type": "address"
        },
        {
          "indexed": true,
          "internalType": "address",
          "name": "to",
          "type": "address"
        },
        {
          "indexed": false,
          "internalType": "uint256",
          "name": "value",
          "type": "uint256"
        }
      ],
      "name": "Transfer",
      "type": "event"
    },
    {
      "inputs": [
        {
          "internalType": "uint256",
          "name": "tokenAmount",
          "type": "uint256"
        }
      ],
      "name": "addLiquidity",
      "outputs": [
        {
          "internalType": "uint256",
          "name": "",
          "type": "uint256"
        }
      ],
      "stateMutability": "payable",
      "type": "function"
    },
    {
      "inputs": [
        {
          "internalType": "address",
          "name": "owner",
          "type": "address"
        },
        {
          "internalType": "address",
          "name": "spender",
          "type": "address"
        }
      ],
      "name": "allowance",
      "outputs": [
        {
          "internalType": "uint256",
          "name": "",
          "type": "uint256"
        }
      ],
      "stateMutability": "view",
      "type": "function"
    },
    {
      "inputs": [
        {
          "internalType": "address",
          "name": "spender",
          "type": "address"
        },
        {
          "internalType": "uint256",
          "name": "amount",
          "type": "uint256"
        }
      ],
      "name": "approve",
      "outputs": [
        {
          "internalType": "bool",
          "name": "",
          "type": "bool"
        }
      ],
      "stateMutability": "nonpayable",
      "type": "function"
    },
    {
      "inputs": [
        {
          "internalType": "address",
          "name": "account",
          "type": "address"
        }
      ],
      "name": "balanceOf",
      "outputs": [
        {
          "internalType": "uint256",
          "name": "",
          "type": "uint256"
        }
      ],
      "stateMutability": "view",
      "type": "function"
    },
    {
      "inputs": [],
      "name": "cryptoDevTokenAddress",
      "outputs": [
        {
          "internalType": "address",
          "name": "",
          "type": "address"
        }
      ],
      "stateMutability": "view",
      "type": "function"
    },
    {
      "inputs": [],
      "name": "decimals",
      "outputs": [
        {
          "internalType": "uint8",
          "name": "",
          "type": "uint8"
        }
      ],
      "stateMutability": "view",
      "type": "function"
    },
    {
      "inputs": [
        {
          "internalType": "address",
          "name": "spender",
          "type": "address"
        },
        {
          "internalType": "uint256",
          "name": "subtractedValue",
          "type": "uint256"
        }
      ],
      "name": "decreaseAllowance",
      "outputs": [
        {
          "internalType": "bool",
          "name": "",
          "type": "bool"
        }
      ],
      "stateMutability": "nonpayable",
      "type": "function"
    },
    {
      "inputs": [
        {
          "internalType": "uint256",
          "name": "inputAmount",
          "type": "uint256"
        },
        {
          "internalType": "uint256",
          "name": "inputReserve",
          "type": "uint256"
        },
        {
          "internalType": "uint256",
          "name": "outputReserve",
          "type": "uint256"
        }
      ],
      "name": "getAmountofToken",
      "outputs": [
        {
          "internalType": "uint256",
          "name": "",
          "type": "uint256"
        }
      ],
      "stateMutability": "pure",
      "type": "function"
    },
    {
      "inputs": [],
      "name": "getReserve",
      "outputs": [
        {
          "internalType": "uint256",
          "name": "",
          "type": "uint256"
        }
      ],
      "stateMutability": "view",
      "type": "function"
    },
    {
      "inputs": [
        {
          "internalType": "address",
          "name": "spender",
          "type": "address"
        },
        {
          "internalType": "uint256",
          "name": "addedValue",
          "type": "uint256"
        }
      ],
      "name": "increaseAllowance",
      "outputs": [
        {
          "internalType": "bool",
          "name": "",
          "type": "bool"
        }
      ],
      "stateMutability": "nonpayable",
      "type": "function"
    },
    {
      "inputs": [],
      "name": "name",
      "outputs": [
        {
          "internalType": "string",
          "name": "",
          "type": "string"
        }
      ],
      "stateMutability": "view",
      "type": "function"
    },
    {
      "inputs": [
        {
          "internalType": "uint256",
          "name": "LPtokenamount",
          "type": "uint256"
        }
      ],
      "name": "removeLiquidity",
      "outputs": [
        {
          "internalType": "uint256",
          "name": "",
          "type": "uint256"
        },
        {
          "internalType": "uint256",
          "name": "",
          "type": "uint256"
        }
      ],
      "stateMutability": "nonpayable",
      "type": "function"
    },
    {
      "inputs": [
        {
          "internalType": "uint256",
          "name": "_minToken",
          "type": "uint256"
        }
      ],
      "name": "swapEthToToken",
      "outputs": [],
      "stateMutability": "payable",
      "type": "function"
    },
    {
      "inputs": [
        {
          "internalType": "uint256",
          "name": "_tokenSold",
          "type": "uint256"
        },
        {
          "internalType": "uint256",
          "name": "_mintETH",
          "type": "uint256"
        }
      ],
      "name": "swapTokenToETH",
      "outputs": [],
      "stateMutability": "nonpayable",
      "type": "function"
    },
    {
      "inputs": [],
      "name": "symbol",
      "outputs": [
        {
          "internalType": "string",
          "name": "",
          "type": "string"
        }
      ],
      "stateMutability": "view",
      "type": "function"
    },
    {
      "inputs": [],
      "name": "totalSupply",
      "outputs": [
        {
          "internalType": "uint256",
          "name": "",
          "type": "uint256"
        }
      ],
      "stateMutability": "view",
      "type": "function"
    },
    {
      "inputs": [
        {
          "internalType": "address",
          "name": "to",
          "type": "address"
        },
        {
          "internalType": "uint256",
          "name": "amount",
          "type": "uint256"
        }
      ],
      "name": "transfer",
      "outputs": [
        {
          "internalType": "bool",
          "name": "",
          "type": "bool"
        }
      ],
      "stateMutability": "nonpayable",
      "type": "function"
    },
    {
      "inputs": [
        {
          "internalType": "address",
          "name": "from",
          "type": "address"
        },
        {
          "internalType": "address",
          "name": "to",
          "type": "address"
        },
        {
          "internalType": "uint256",
          "name": "amount",
          "type": "uint256"
        }
      ],
      "name": "transferFrom",
      "outputs": [
        {
          "internalType": "bool",
          "name": "",
          "type": "bool"
        }
      ],
      "stateMutability": "nonpayable",
      "type": "function"
    }
  ],
  "bytecode": "0x60806040523480156200001157600080fd5b5060405162002b9b38038062002b9b8339818101604052810190620000379190620001ea565b6040518060400160405280601281526020017f43727970746f446576204c7020546f6b656e00000000000000000000000000008152506040518060400160405280600481526020017f43444c54000000000000000000000000000000000000000000000000000000008152508160039081620000b4919062000496565b508060049081620000c6919062000496565b5050506001600581905550600073ffffffffffffffffffffffffffffffffffffffff168173ffffffffffffffffffffffffffffffffffffffff160362000138576040517fd92e233d00000000000000000000000000000000000000000000000000000000815260040160405180910390fd5b80600660006101000a81548173ffffffffffffffffffffffffffffffffffffffff021916908373ffffffffffffffffffffffffffffffffffffffff160217905550506200057d565b600080fd5b600073ffffffffffffffffffffffffffffffffffffffff82169050919050565b6000620001b28262000185565b9050919050565b620001c481620001a5565b8114620001d057600080fd5b50565b600081519050620001e481620001b9565b92915050565b60006020828403121562000203576200020262000180565b5b60006200021384828501620001d3565b91505092915050565b600081519050919050565b7f4e487b7100000000000000000000000000000000000000000000000000000000600052604160045260246000fd5b7f4e487b7100000000000000000000000000000000000000000000000000000000600052602260045260246000fd5b600060028204905060018216806200029e57607f821691505b602082108103620002b457620002b362000256565b5b50919050565b60008190508160005260206000209050919050565b60006020601f8301049050919050565b600082821b905092915050565b6000600883026200031e7fffffffffffffffffffffffffffffffffffffffffffffffffffffffffffffffff82620002df565b6200032a8683620002df565b95508019841693508086168417925050509392505050565b6000819050919050565b6000819050919050565b600062000377620003716200036b8462000342565b6200034c565b62000342565b9050919050565b6000819050919050565b620003938362000356565b620003ab620003a2826200037e565b848454620002ec565b825550505050565b600090565b620003c2620003b3565b620003cf81848462000388565b505050565b5b81811015620003f757620003eb600082620003b8565b600181019050620003d5565b5050565b601f82111562000446576200041081620002ba565b6200041b84620002cf565b810160208510156200042b578190505b620004436200043a85620002cf565b830182620003d4565b50505b505050565b600082821c905092915050565b60006200046b600019846008026200044b565b1980831691505092915050565b600062000486838362000458565b9150826002028217905092915050565b620004a1826200021c565b67ffffffffffffffff811115620004bd57620004bc62000227565b5b620004c9825462000285565b620004d6828285620003fb565b600060209050601f8311600181146200050e5760008415620004f9578287015190505b62000505858262000478565b86555062000575565b601f1984166200051e86620002ba565b60005b82811015620005485784890151825560018201915060208501945060208101905062000521565b8683101562000568578489015162000564601f89168262000458565b8355505b6001600288020188555050505b505050505050565b61260e806200058d6000396000f3fe6080604052600436106101095760003560e01c806370a0823111610095578063a457c2d711610064578063a457c2d71461039b578063a9059cbb146103d8578063b698631c14610415578063b9a1119814610431578063dd62ed3e1461046e57610109565b806370a08231146102ca57806395d89b41146103075780639c8f9f23146103325780639e7a29221461037057610109565b8063313ce567116100dc578063313ce567146101de578063395093511461020957806351be58f41461024657806351c6590a1461026f57806359bf5d391461029f57610109565b806306fdde031461010e578063095ea7b31461013957806318160ddd1461017657806323b872dd146101a1575b600080fd5b34801561011a57600080fd5b506101236104ab565b60405161013091906119c5565b60405180910390f35b34801561014557600080fd5b50610160600480360381019061015b9190611a80565b61053d565b60405161016d9190611adb565b60405180910390f35b34801561018257600080fd5b5061018b610560565b6040516101989190611b05565b60405180910390f35b3480156101ad57600080fd5b506101c860048036038101906101c39190611b20565b61056a565b6040516101d59190611adb565b60405180910390f35b3480156101ea57600080fd5b506101f3610599565b6040516102009190611b8f565b60405180910390f35b34801561021557600080fd5b50610230600480360381019061022b9190611a80565b6105a2565b60405161023d9190611adb565b60405180910390f35b34801561025257600080fd5b5061026d60048036038101906102689190611baa565b6105d9565b005b61028960048036038101906102849190611bea565b61078b565b6040516102969190611b05565b60405180910390f35b3480156102ab57600080fd5b506102b4610a1a565b6040516102c19190611b05565b60405180910390f35b3480156102d657600080fd5b506102f160048036038101906102ec9190611c17565b610abd565b6040516102fe9190611b05565b60405180910390f35b34801561031357600080fd5b5061031c610b05565b60405161032991906119c5565b60405180910390f35b34801561033e57600080fd5b5061035960048036038101906103549190611bea565b610b97565b604051610367929190611c44565b60405180910390f35b34801561037c57600080fd5b50610385610de1565b6040516103929190611c7c565b60405180910390f35b3480156103a757600080fd5b506103c260048036038101906103bd9190611a80565b610e07565b6040516103cf9190611adb565b60405180910390f35b3480156103e457600080fd5b506103ff60048036038101906103fa9190611a80565b610e7e565b60405161040c9190611adb565b60405180910390f35b61042f600480360381019061042a9190611bea565b610ea1565b005b34801561043d57600080fd5b5061045860048036038101906104539190611c97565b610fb6565b6040516104659190611b05565b60405180910390f35b34801561047a57600080fd5b5061049560048036038101906104909190611cea565b611055565b6040516104a29190611b05565b60405180910390f35b6060600380546104ba90611d59565b80601f01602080910402602001604051908101604052809291908181526020018280546104e690611d59565b80156105335780601f1061050857610100808354040283529160200191610533565b820191906000526020600020905b81548152906001019060200180831161051657829003601f168201915b5050505050905090565b6000806105486110dc565b90506105558185856110e4565b600191505092915050565b6000600254905090565b6000806105756110dc565b90506105828582856112ad565b61058d858585611339565b60019150509392505050565b60006012905090565b6000806105ad6110dc565b90506105ce8185856105bf8589611055565b6105c99190611db9565b6110e4565b600191505092915050565b6105e16115af565b60006105eb610a1a565b905060006105fa848347610fb6565b905082811015610636576040517f7144382200000000000000000000000000000000000000000000000000000000815260040160405180910390fd5b600660009054906101000a900473ffffffffffffffffffffffffffffffffffffffff1673ffffffffffffffffffffffffffffffffffffffff166323b872dd3330876040518463ffffffff1660e01b815260040161069593929190611ded565b6020604051808303816000875af11580156106b4573d6000803e3d6000fd5b505050506040513d601f19601f820116820180604052508101906106d89190611e50565b5060003373ffffffffffffffffffffffffffffffffffffffff16826040516106ff90611eae565b60006040518083038185875af1925050503d806000811461073c576040519150601f19603f3d011682016040523d82523d6000602084013e610741565b606091505b505090508061077c576040517f90b8ec1800000000000000000000000000000000000000000000000000000000815260040160405180910390fd5b5050506107876115fe565b5050565b60006107956115af565b60008047905060006107a5610a1a565b90506000600660009054906101000a900473ffffffffffffffffffffffffffffffffffffffff16905060008203610869578073ffffffffffffffffffffffffffffffffffffffff166323b872dd3330896040518463ffffffff1660e01b815260040161081393929190611ded565b6020604051808303816000875af1158015610832573d6000803e3d6000fd5b505050506040513d601f19601f820116820180604052508101906108569190611e50565b508293506108643385611608565b61097c565b600034476108779190611ec3565b905060008184346108889190611ef7565b6108929190611f68565b9050808810156108ce576040517f5945ea5600000000000000000000000000000000000000000000000000000000815260040160405180910390fd5b8273ffffffffffffffffffffffffffffffffffffffff166323b872dd3330846040518463ffffffff1660e01b815260040161090b93929190611ded565b6020604051808303816000875af115801561092a573d6000803e3d6000fd5b505050506040513d601f19601f8201168201806040525081019061094e9190611e50565b508134610959610560565b6109639190611ef7565b61096d9190611f68565b95506109793387611608565b50505b85600660009054906101000a900473ffffffffffffffffffffffffffffffffffffffff1673ffffffffffffffffffffffffffffffffffffffff163373ffffffffffffffffffffffffffffffffffffffff167f2f3289d16dbc3007471d28c4936df3a95222bc938112449400d049637e3309ce34886040516109fe929190611c44565b60405180910390a483945050505050610a156115fe565b919050565b6000600660009054906101000a900473ffffffffffffffffffffffffffffffffffffffff1673ffffffffffffffffffffffffffffffffffffffff166370a08231306040518263ffffffff1660e01b8152600401610a779190611c7c565b602060405180830381865afa158015610a94573d6000803e3d6000fd5b505050506040513d601f19601f82011682018060405250810190610ab89190611fae565b905090565b60008060008373ffffffffffffffffffffffffffffffffffffffff1673ffffffffffffffffffffffffffffffffffffffff168152602001908152602001600020549050919050565b606060048054610b1490611d59565b80601f0160208091040260200160405190810160405280929190818152602001828054610b4090611d59565b8015610b8d5780601f10610b6257610100808354040283529160200191610b8d565b820191906000526020600020905b815481529060010190602001808311610b7057829003601f168201915b5050505050905090565b600080610ba26115af565b60008311610bdc576040517fc00374f300000000000000000000000000000000000000000000000000000000815260040160405180910390fd5b60004790506000610beb610560565b8286610bf79190611ef7565b610c019190611f68565b90506000610c0d610560565b610c15610a1a565b87610c209190611ef7565b610c2a9190611f68565b9050610c36338761175e565b60003373ffffffffffffffffffffffffffffffffffffffff1683604051610c5c90611eae565b60006040518083038185875af1925050503d8060008114610c99576040519150601f19603f3d011682016040523d82523d6000602084013e610c9e565b606091505b5050905080610cd9576040517f90b8ec1800000000000000000000000000000000000000000000000000000000815260040160405180910390fd5b600660009054906101000a900473ffffffffffffffffffffffffffffffffffffffff1673ffffffffffffffffffffffffffffffffffffffff1663a9059cbb33846040518363ffffffff1660e01b8152600401610d36929190611fdb565b6020604051808303816000875af1158015610d55573d6000803e3d6000fd5b505050506040513d601f19601f82011682018060405250810190610d799190611e50565b5082873373ffffffffffffffffffffffffffffffffffffffff167f59c3a0b60c6ab7deb62e1440c9e72441db6db7dfe514dba8cb18e60c0d896efa85604051610dc29190611b05565b60405180910390a482829550955050505050610ddc6115fe565b915091565b600660009054906101000a900473ffffffffffffffffffffffffffffffffffffffff1681565b600080610e126110dc565b90506000610e208286611055565b905083811015610e65576040517f08c379a0000000000000000000000000000000000000000000000000000000008152600401610e5c90612076565b60405180910390fd5b610e7282868684036110e4565b60019250505092915050565b600080610e896110dc565b9050610e96818585611339565b600191505092915050565b610ea96115af565b6000610eb3610a1a565b90506000610ecd343447610ec79190611ec3565b84610fb6565b9050828111610f08576040517f8843011e00000000000000000000000000000000000000000000000000000000815260040160405180910390fd5b600660009054906101000a900473ffffffffffffffffffffffffffffffffffffffff1673ffffffffffffffffffffffffffffffffffffffff1663a9059cbb33836040518363ffffffff1660e01b8152600401610f65929190611fdb565b6020604051808303816000875af1158015610f84573d6000803e3d6000fd5b505050506040513d601f19601f82011682018060405250810190610fa89190611e50565b505050610fb36115fe565b50565b6000808411158015610fc9575060008211155b15611000576040517fc00374f300000000000000000000000000000000000000000000000000000000815260040160405180910390fd5b600060638561100f9190611ef7565b90506000838261101f9190611ef7565b90506000826064876110319190611ef7565b61103b9190611db9565b905080826110499190611f68565b93505050509392505050565b6000600160008473ffffffffffffffffffffffffffffffffffffffff1673ffffffffffffffffffffffffffffffffffffffff16815260200190815260200160002060008373ffffffffffffffffffffffffffffffffffffffff1673ffffffffffffffffffffffffffffffffffffffff16815260200190815260200160002054905092915050565b600033905090565b600073ffffffffffffffffffffffffffffffffffffffff168373ffffffffffffffffffffffffffffffffffffffff1603611153576040517f08c379a000000000000000000000000000000000000000000000000000000000815260040161114a90612108565b60405180910390fd5b600073ffffffffffffffffffffffffffffffffffffffff168273ffffffffffffffffffffffffffffffffffffffff16036111c2576040517f08c379a00000000000000000000000000000000000000000000000000000000081526004016111b99061219a565b60405180910390fd5b80600160008573ffffffffffffffffffffffffffffffffffffffff1673ffffffffffffffffffffffffffffffffffffffff16815260200190815260200160002060008473ffffffffffffffffffffffffffffffffffffffff1673ffffffffffffffffffffffffffffffffffffffff168152602001908152602001600020819055508173ffffffffffffffffffffffffffffffffffffffff168373ffffffffffffffffffffffffffffffffffffffff167f8c5be1e5ebec7d5bd14f71427d1e84f3dd0314c0f7b2291e5b200ac8c7c3b925836040516112a09190611b05565b60405180910390a3505050565b60006112b98484611055565b90507fffffffffffffffffffffffffffffffffffffffffffffffffffffffffffffffff81146113335781811015611325576040517f08c379a000000000000000000000000000000000000000000000000000000000815260040161131c90612206565b60405180910390fd5b61133284848484036110e4565b5b50505050565b600073ffffffffffffffffffffffffffffffffffffffff168373ffffffffffffffffffffffffffffffffffffffff16036113a8576040517f08c379a000000000000000000000000000000000000000000000000000000000815260040161139f90612298565b60405180910390fd5b600073ffffffffffffffffffffffffffffffffffffffff168273ffffffffffffffffffffffffffffffffffffffff1603611417576040517f08c379a000000000000000000000000000000000000000000000000000000000815260040161140e9061232a565b60405180910390fd5b61142283838361192b565b60008060008573ffffffffffffffffffffffffffffffffffffffff1673ffffffffffffffffffffffffffffffffffffffff168152602001908152602001600020549050818110156114a8576040517f08c379a000000000000000000000000000000000000000000000000000000000815260040161149f906123bc565b60405180910390fd5b8181036000808673ffffffffffffffffffffffffffffffffffffffff1673ffffffffffffffffffffffffffffffffffffffff16815260200190815260200160002081905550816000808573ffffffffffffffffffffffffffffffffffffffff1673ffffffffffffffffffffffffffffffffffffffff168152602001908152602001600020600082825401925050819055508273ffffffffffffffffffffffffffffffffffffffff168473ffffffffffffffffffffffffffffffffffffffff167fddf252ad1be2c89b69c2b068fc378daa952ba7f163c4a11628f55a4df523b3ef846040516115969190611b05565b60405180910390a36115a9848484611930565b50505050565b6002600554036115f4576040517f08c379a00000000000000000000000000000000000000000000000000000000081526004016115eb90612428565b60405180910390fd5b6002600581905550565b6001600581905550565b600073ffffffffffffffffffffffffffffffffffffffff168273ffffffffffffffffffffffffffffffffffffffff1603611677576040517f08c379a000000000000000000000000000000000000000000000000000000000815260040161166e90612494565b60405180910390fd5b6116836000838361192b565b80600260008282546116959190611db9565b92505081905550806000808473ffffffffffffffffffffffffffffffffffffffff1673ffffffffffffffffffffffffffffffffffffffff168152602001908152602001600020600082825401925050819055508173ffffffffffffffffffffffffffffffffffffffff16600073ffffffffffffffffffffffffffffffffffffffff167fddf252ad1be2c89b69c2b068fc378daa952ba7f163c4a11628f55a4df523b3ef836040516117469190611b05565b60405180910390a361175a60008383611930565b5050565b600073ffffffffffffffffffffffffffffffffffffffff168273ffffffffffffffffffffffffffffffffffffffff16036117cd576040517f08c379a00000000000000000000000000000000000000000000000000000000081526004016117c490612526565b60405180910390fd5b6117d98260008361192b565b60008060008473ffffffffffffffffffffffffffffffffffffffff1673ffffffffffffffffffffffffffffffffffffffff1681526020019081526020016000205490508181101561185f576040517f08c379a0000000000000000000000000000000000000000000000000000000008152600401611856906125b8565b60405180910390fd5b8181036000808573ffffffffffffffffffffffffffffffffffffffff1673ffffffffffffffffffffffffffffffffffffffff1681526020019081526020016000208190555081600260008282540392505081905550600073ffffffffffffffffffffffffffffffffffffffff168373ffffffffffffffffffffffffffffffffffffffff167fddf252ad1be2c89b69c2b068fc378daa952ba7f163c4a11628f55a4df523b3ef846040516119129190611b05565b60405180910390a361192683600084611930565b505050565b505050565b505050565b600081519050919050565b600082825260208201905092915050565b60005b8381101561196f578082015181840152602081019050611954565b60008484015250505050565b6000601f19601f8301169050919050565b600061199782611935565b6119a18185611940565b93506119b1818560208601611951565b6119ba8161197b565b840191505092915050565b600060208201905081810360008301526119df818461198c565b905092915050565b600080fd5b600073ffffffffffffffffffffffffffffffffffffffff82169050919050565b6000611a17826119ec565b9050919050565b611a2781611a0c565b8114611a3257600080fd5b50565b600081359050611a4481611a1e565b92915050565b6000819050919050565b611a5d81611a4a565b8114611a6857600080fd5b50565b600081359050611a7a81611a54565b92915050565b60008060408385031215611a9757611a966119e7565b5b6000611aa585828601611a35565b9250506020611ab685828601611a6b565b9150509250929050565b60008115159050919050565b611ad581611ac0565b82525050565b6000602082019050611af06000830184611acc565b92915050565b611aff81611a4a565b82525050565b6000602082019050611b1a6000830184611af6565b92915050565b600080600060608486031215611b3957611b386119e7565b5b6000611b4786828701611a35565b9350506020611b5886828701611a35565b9250506040611b6986828701611a6b565b9150509250925092565b600060ff82169050919050565b611b8981611b73565b82525050565b6000602082019050611ba46000830184611b80565b92915050565b60008060408385031215611bc157611bc06119e7565b5b6000611bcf85828601611a6b565b9250506020611be085828601611a6b565b9150509250929050565b600060208284031215611c0057611bff6119e7565b5b6000611c0e84828501611a6b565b91505092915050565b600060208284031215611c2d57611c2c6119e7565b5b6000611c3b84828501611a35565b91505092915050565b6000604082019050611c596000830185611af6565b611c666020830184611af6565b9392505050565b611c7681611a0c565b82525050565b6000602082019050611c916000830184611c6d565b92915050565b600080600060608486031215611cb057611caf6119e7565b5b6000611cbe86828701611a6b565b9350506020611ccf86828701611a6b565b9250506040611ce086828701611a6b565b9150509250925092565b60008060408385031215611d0157611d006119e7565b5b6000611d0f85828601611a35565b9250506020611d2085828601611a35565b9150509250929050565b7f4e487b7100000000000000000000000000000000000000000000000000000000600052602260045260246000fd5b60006002820490506001821680611d7157607f821691505b602082108103611d8457611d83611d2a565b5b50919050565b7f4e487b7100000000000000000000000000000000000000000000000000000000600052601160045260246000fd5b6000611dc482611a4a565b9150611dcf83611a4a565b9250828201905080821115611de757611de6611d8a565b5b92915050565b6000606082019050611e026000830186611c6d565b611e0f6020830185611c6d565b611e1c6040830184611af6565b949350505050565b611e2d81611ac0565b8114611e3857600080fd5b50565b600081519050611e4a81611e24565b92915050565b600060208284031215611e6657611e656119e7565b5b6000611e7484828501611e3b565b91505092915050565b600081905092915050565b50565b6000611e98600083611e7d565b9150611ea382611e88565b600082019050919050565b6000611eb982611e8b565b9150819050919050565b6000611ece82611a4a565b9150611ed983611a4a565b9250828203905081811115611ef157611ef0611d8a565b5b92915050565b6000611f0282611a4a565b9150611f0d83611a4a565b9250828202611f1b81611a4a565b91508282048414831517611f3257611f31611d8a565b5b5092915050565b7f4e487b7100000000000000000000000000000000000000000000000000000000600052601260045260246000fd5b6000611f7382611a4a565b9150611f7e83611a4a565b925082611f8e57611f8d611f39565b5b828204905092915050565b600081519050611fa881611a54565b92915050565b600060208284031215611fc457611fc36119e7565b5b6000611fd284828501611f99565b91505092915050565b6000604082019050611ff06000830185611c6d565b611ffd6020830184611af6565b9392505050565b7f45524332303a2064656372656173656420616c6c6f77616e63652062656c6f7760008201527f207a65726f000000000000000000000000000000000000000000000000000000602082015250565b6000612060602583611940565b915061206b82612004565b604082019050919050565b6000602082019050818103600083015261208f81612053565b9050919050565b7f45524332303a20617070726f76652066726f6d20746865207a65726f2061646460008201527f7265737300000000000000000000000000000000000000000000000000000000602082015250565b60006120f2602483611940565b91506120fd82612096565b604082019050919050565b60006020820190508181036000830152612121816120e5565b9050919050565b7f45524332303a20617070726f766520746f20746865207a65726f20616464726560008201527f7373000000000000000000000000000000000000000000000000000000000000602082015250565b6000612184602283611940565b915061218f82612128565b604082019050919050565b600060208201905081810360008301526121b381612177565b9050919050565b7f45524332303a20696e73756666696369656e7420616c6c6f77616e6365000000600082015250565b60006121f0601d83611940565b91506121fb826121ba565b602082019050919050565b6000602082019050818103600083015261221f816121e3565b9050919050565b7f45524332303a207472616e736665722066726f6d20746865207a65726f20616460008201527f6472657373000000000000000000000000000000000000000000000000000000602082015250565b6000612282602583611940565b915061228d82612226565b604082019050919050565b600060208201905081810360008301526122b181612275565b9050919050565b7f45524332303a207472616e7366657220746f20746865207a65726f206164647260008201527f6573730000000000000000000000000000000000000000000000000000000000602082015250565b6000612314602383611940565b915061231f826122b8565b604082019050919050565b6000602082019050818103600083015261234381612307565b9050919050565b7f45524332303a207472616e7366657220616d6f756e742065786365656473206260008201527f616c616e63650000000000000000000000000000000000000000000000000000602082015250565b60006123a6602683611940565b91506123b18261234a565b604082019050919050565b600060208201905081810360008301526123d581612399565b9050919050565b7f5265656e7472616e637947756172643a207265656e7472616e742063616c6c00600082015250565b6000612412601f83611940565b915061241d826123dc565b602082019050919050565b6000602082019050818103600083015261244181612405565b9050919050565b7f45524332303a206d696e7420746f20746865207a65726f206164647265737300600082015250565b600061247e601f83611940565b915061248982612448565b602082019050919050565b600060208201905081810360008301526124ad81612471565b9050919050565b7f45524332303a206275726e2066726f6d20746865207a65726f2061646472657360008201527f7300000000000000000000000000000000000000000000000000000000000000602082015250565b6000612510602183611940565b915061251b826124b4565b604082019050919050565b6000602082019050818103600083015261253f81612503565b9050919050565b7f45524332303a206275726e20616d6f756e7420657863656564732062616c616e60008201527f6365000000000000000000000000000000000000000000000000000000000000602082015250565b60006125a2602283611940565b91506125ad82612546565b604082019050919050565b600060208201905081810360008301526125d181612595565b905091905056fea26469706673582212200df2a60c368fc84ad273c32d65730254da9e6b2d3317574dfe1d67d4e5a95d7a64736f6c63430008110033",
  "linkReferences": {},
  "deployedLinkReferences": {}
}